:100000000C942A000C9487020C943F000C943F003F
:100010000C943F000C943F000C943F000C943F0064
:100020000C943F000C943F000C943F000C943F0054
:100030000C943F000C943F000C943F000C943F0044
:100040000C943F000C943F000C943F000C943F0034
:100050000C943F0011241FBECFE5D8E0DEBFCDBF1A
:1000600010E0A0E6B0E0E0EEF5E002C005900D92F1
:10007000A83AB107D9F70E9434020C94EE020C940E
:1000800000004423B9F1413009F06BC0813089F0A0
:1000900028F08230C9F0833011F108952AB381E04D
:1000A00090E002C0880F991F6A95E2F7822B8ABB05
:1000B000089527B381E090E002C0880F991F6A95E8
:1000C000E2F7822B87BB089524B381E090E002C061
:1000D000880F991F6A95E2F7822B84BB089521B39C
:1000E00081E090E002C0880F991F6A95E2F7822BA9
:1000F00081BB0895813091F028F08230D9F08330AF
:1001000029F108952AB381E090E002C0880F991F79
:100110006A95E2F7809582238ABB089527B381E030
:1001200090E002C0880F991F6A95E2F780958223BC
:1001300087BB089524B381E090E002C0880F991F27
:100140006A95E2F78095822384BB089521B381E00C
:1001500090E002C0880F991F6A95E2F7809582238C
:1001600081BB08954423B9F1413009F06BC081305F
:1001700089F028F08230C9F0833011F108952BB353
:1001800081E090E002C0880F991F6A95E2F7822B08
:100190008BBB089528B381E090E002C0880F991FBF
:1001A0006A95E2F7822B88BB089525B381E090E041
:1001B00002C0880F991F6A95E2F7822B85BB0895CC
:1001C00022B381E090E002C0880F991F6A95E2F7A0
:1001D000822B82BB0895813091F028F08230D9F0D3
:1001E000833029F108952BB381E090E002C0880F9D
:1001F000991F6A95E2F7809582238BBB089528B3F7
:1002000081E090E002C0880F991F6A95E2F780951F
:10021000822388BB089525B381E090E002C0880F57
:10022000991F6A95E2F78095822385BB089522B3D2
:1002300081E090E002C0880F991F6A95E2F78095EF
:10024000822382BB08958FB780688FBF08950E9474
:10025000230185B7816085BF85B7826085BF8BB775
:1002600080648BBF0895CF93C82F40E061E081E0A8
:100270000E94B20040E062E081E00E94B20040E0F3
:1002800063E081E00E94B2008BB39C2F907F8F705F
:10029000892B8BBB41E063E081E00E94B2008FE9D3
:1002A0009FE00197F1F700C0000040E063E081E0CB
:1002B0000E94B20020E1C29FC00111249BB39F7035
:1002C000892B8BBB41E063E081E00E94B2008FE9A3
:1002D0009FE00197F1F700C0000040E063E081E09B
:1002E0000E94B2008FE19EE40197F1F700C0000088
:1002F000CF91089541E061E081E00E94410041E03A
:1003000062E081E00E94410041E063E081E00E9400
:10031000410041E064E080E00E94410041E065E08E
:1003200080E00E94410041E066E080E00E944100E0
:1003300041E067E080E00E9441002FEF81EE94E011
:10034000215080409040E1F700C0000083E30E940C
:10035000330182E30E94330188E20E9433018CE082
:100360000E94330181E00E94330186E00E94330144
:1003700082E00E9433010895CF93C82F41E061E0ED
:1003800081E00E94B20040E062E081E00E94B200A1
:1003900040E063E081E00E94B2008BB39C2F907F2D
:1003A0008F70892B8BBB41E063E081E00E94B2003B
:1003B0008FE99FE00197F1F700C0000040E063E0A3
:1003C00081E00E94B20020E1C29FC00111249BB3D2
:1003D0009F70892B8BBB41E063E081E00E94B200FB
:1003E0008FE99FE00197F1F700C0000040E063E073
:1003F00081E00E94B2008FE19EE40197F1F700C016
:100400000000CF9108950F931F93CF938C01C0E00C
:1004100003C00E94BC01CF5FF801EC0FF11D808189
:100420008111F7CFCF911F910F91089581E00E9424
:100430003301089585B38B7F85BB089595B384E020
:10044000892785BB089584B3846084BB089585B3F0
:100450008E7F85BB089595B381E0892785BB08957C
:1004600084B3816084BB0895CF93DF93CDB7DEB7AB
:1004700065970FB6F894DEBF0FBECDBF0E94230272
:100480000E9430020E947A010E9427010E94CB0242
:1004900000E082E00E94E402182F8823D1F30E943A
:1004A0001602113319F0123389F020C00E941E0287
:1004B00082E1E0E6F0E0DE01119601900D928A956E
:1004C000E1F7CE0101960E94030211C00E942B02A7
:1004D00082E1E2E7F0E0DE01119601900D928A954B
:1004E000E1F7CE0101960E94030201C001E0002362
:1004F00081F285E1E4E8F0E0DE01119601900D92D1
:100500008A95E1F7CE0101960E940302C2CF1F92A5
:100510000F920FB60F9211242F933F934F935F9337
:100520006F937F938F939F93AF93BF93EF93FF93BB
:10053000CF93DF93CDB7DEB72E97DEBFCDBF0E943E
:100540001A020E9427020E9416028EE0E9E9F0E0FA
:10055000DE01119601900D928A95E1F7CE01019688
:100560000E9403022E960FB6F894DEBF0FBECDBFD9
:10057000DF91CF91FF91EF91BF91AF919F918F91BB
:100580007F916F915F914F913F912F910F900FBE8F
:100590000F901F90189540E064E081E00E944100B8
:1005A00040E065E081E00E94410041E066E081E0DA
:1005B0000E94410040E067E081E00E94410080E449
:1005C00090E09EB98DB9089590E090BB8FB98EB13F
:1005D0009FB187FFFCCF8FB190B30895F894FFCF00
:1005E00020546F67676C696E67204C65642020310A
:1005F000200020546F67676C696E67204C6564202B
:100600002032200020496E76616C6964204C65645C
:10061000204E756D62657220005265736574746951
:080620006E672021212000007B
:00000001FF
